:020000040000FA
:1000000083168601FF30850083120508FF3E8C00B1
:100010000C0F0B2862280508FE3E8C000C0F1128DF
:1000200065280508FD3E8C000C0F17286828050878
:10003000FC3E8C000C0F1D286B280508FB3E8C0035
:100040000C0F23286E280508FA3E8C000C0F292877
:1000500071280508F93E8C000C0F2F28742805081C
:10006000F83E8C000C0F352877280508F73E8C00E9
:100070000C0F3B287A280508F63E8C000C0F41280F
:100080007D280508F53E8C000C0F472880280508C0
:10009000F43E8C000C0F4D2883280508F33E8C009D
:1000A0000C0F532886280508F23E8C000C0F5928A7
:1000B00089280508F13E8C000C0F5F288C287130D0
:1000C000860005280330860005289F308600052815
:1000D0002530860005280D308600052899308600D9
:1000E00005284930860005284130860005281F3044
:1000F000860005280130860005281930860005286D
:10010000113086000528C13086000528633086003E
:0E011000052885308600052861308600052808
:02400E00F13F80
:00000001FF
